:100000000C9453000C947B000C947B000C947B00AC
:100010000C947B000C947B000C947B000C947B0074
:100020000C947B000C947B000C947B000C947B0064
:100030000C947B000C947B000C947B000C947B0054
:100040000C94F1020C947B000C9414020C94460264
:100050000C947B000C947B000C947B000C947B0034
:100060000C947B000C947B0001020408102040805B
:1000700001020408102001020408102004040404F2
:100080000404040402020202020203030303030342
:1000900000000000250028002B00000000002400C4
:1000A00027002A00760211241FBECFEFD8E0DEBF62
:1000B000CDBF11E0A0E0B1E0E0E4F7E002C00590C0
:1000C0000D92A631B107D9F721E0A6E1B1E001C058
:1000D0001D92AC3BB207E1F710E0C6EAD0E004C0E5
:1000E0002297FE010E949A03C43AD107C9F70E94E1
:1000F000E2020C949E030C94000061E080910401E4
:100100000E94960061E0809102010E94960061E0E9
:10011000809100010E94960026E040E855E260E0F0
:1001200070E086E191E00C94B2010895CF93DF93E3
:1001300090E0FC01E859FF4F2491FC01E458FF4F87
:100140008491882349F190E0880F991FFC01E656BD
:10015000FF4FA591B49180579F4FFC01C591D49159
:100160009FB7611108C0F8948C91209582238C93DD
:10017000888182230AC0623051F4F8948C91322F26
:10018000309583238C938881822B888304C0F894D4
:100190008C91822B8C939FBFDF91CF910895FC01AE
:1001A000818D228D90E0805C9F4F821B91098F731F
:1001B00099270895FC01918D828D981731F0828DD9
:1001C000E80FF11D858D90E008958FEF9FEF089562
:1001D000FC01918D828D981761F0828DDF01A80F4F
:1001E000B11D5D968C91928D9F5F9F73928F90E071
:1001F00008958FEF9FEF08958CE692E0892B49F0E8
:1002000080E090E0892B29F00E946C0281110C940F
:1002100000000895FC01848DDF01A80FB11DA35AD1
:10022000BF4F2C91848D90E001968F739927848F16
:10023000A689B7892C93A089B1898C9180648C930D
:10024000938D848D981306C00288F389E02D8081F8
:100250008F7D80830895CF93DF93EC01888D882371
:10026000C9F0EA89FB89808185FD05C0A889B98923
:100270008C9186FD0FC00FB607FCF5CF808185FFFE
:10028000F2CFA889B9898C9185FFEDCFCE010E946C
:100290000A01E7CFDF91CF910895CF92DF92FF92CD
:1002A0000F931F93CF93DF931F92CDB7DEB76C01EF
:1002B00081E0D60158968C9358975B969C915B97FA
:1002C0005C968C915C97981307C05096ED91FC91C9
:1002D0005197808185FD2EC0F601038D10E00F5FE0
:1002E0001F4F0F731127F02EF601848DF81211C0E5
:1002F0000FB607FCF9CFD6015096ED91FC915197BE
:10030000808185FFF1CFC60169830E940A0169815E
:10031000EBCF838DE80FF11DE35AFF4F6083D601C9
:100320005B960C935B975296ED91FC91539780816D
:1003300080620CC0D6015696ED91FC915797608370
:100340005096ED91FC91519780818064808381E08B
:1003500090E00F90DF91CF911F910F91FF90DF9070
:10036000CF900895BF92CF92DF92EF92FF92CF93FA
:10037000DF93EC016A017B01B22EE889F98982E002
:100380008083411581EE580761057105A1F060E099
:1003900079E08DE390E0A70196010E947603215059
:1003A00031094109510956954795379527952115EA
:1003B00080E1380798F0E889F989108260E874E8EC
:1003C0008EE190E0A70196010E9476032150310949
:1003D000410951095695479537952795EC85FD8537
:1003E0003083EE85FF852083188EEC89FD89B082ED
:1003F000EA89FB89808180618083EA89FB89808129
:1004000088608083EA89FB89808180688083EA89AB
:10041000FB8980818F7D8083DF91CF91FF90EF906A
:10042000DF90CF90BF9008951F920F920FB60F925A
:1004300011242F938F939F93EF93FF93E0912601C5
:10044000F09127018081E0912C01F0912D0182FD36
:1004500012C0908180912F018F5F8F7320913001A6
:10046000821751F0E0912F01F0E0EA5EFE4F958F88
:1004700080932F0101C08081FF91EF919F918F9117
:100480002F910F900FBE0F901F9018951F920F92F3
:100490000FB60F9211242F933F934F935F936F9357
:1004A0007F938F939F93AF93BF93EF93FF9386E1D7
:1004B00091E00E940A01FF91EF91BF91AF919F914E
:1004C0008F917F916F915F914F913F912F910F90FD
:1004D0000FBE0F901F90189586E191E00E94CF000B
:1004E00021E0892B09F420E0822F08951092190150
:1004F0001092180188EE93E0A0E0B0E080931A011A
:1005000090931B01A0931C01B0931D018AE091E020
:10051000909317018093160185EC90E0909323014E
:100520008093220184EC90E0909325018093240134
:1005300080EC90E0909327018093260181EC90E07D
:10054000909329018093280182EC90E090932B01F5
:1005500080932A0186EC90E090932D0180932C01EA
:1005600010922F011092300110923101109232013D
:100570000895CF92DF92EF92FF920F931F93CF9344
:10058000DF937C016A01EB0100E010E00C151D0512
:1005900071F06991D701ED91FC910190F081E02D0E
:1005A000C7010995892B19F00F5F1F4FEFCFC801C5
:1005B000DF91CF911F910F91FF90EF90DF90CF903F
:1005C000089508950E943B030E94E1020E947D006D
:1005D000CCEFD0E00E9495002097E1F30E94FC0050
:1005E000F9CF1F920F920FB60F9211242F933F93C2
:1005F0008F939F93AF93BF938091B4019091B50176
:10060000A091B601B091B7013091B30123E0230F5F
:100610002D3720F40196A11DB11D05C026E8230F3A
:100620000296A11DB11D2093B3018093B401909354
:10063000B501A093B601B093B7018091B801909134
:10064000B901A091BA01B091BB010196A11DB11DE4
:100650008093B8019093B901A093BA01B093BB0104
:10066000BF91AF919F918F913F912F910F900FBEAE
:100670000F901F901895789484B5826084BD84B5DE
:10068000816084BD85B5826085BD85B5816085BD8D
:10069000EEE6F0E0808181608083E1E8F0E01082A6
:1006A000808182608083808181608083E0E8F0E0E7
:1006B000808181608083E1EBF0E0808184608083D1
:1006C000E0EBF0E0808181608083EAE7F0E0808108
:1006D0008460808380818260808380818160808368
:1006E0008081806880831092C1000895A1E21A2E53
:1006F000AA1BBB1BFD010DC0AA1FBB1FEE1FFF1FC6
:10070000A217B307E407F50720F0A21BB30BE40B15
:10071000F50B661F771F881F991F1A9469F760955C
:100720007095809590959B01AC01BD01CF01089516
:10073000EE0FFF1F0590F491E02D0994F894FFCF80
:100740000A0009000800000000004D01B902CF00B6
:06075000E800DA002B01B5
:00000001FF
